:080000000C9486000C94000032
:100008000C9400000C9400000C9400000C94000068
:100018000C9400000C9400000C9400000C94000058
:100028000C9400000C9400000C9400000C94000048
:100038000C9400000C9400000C9400000C94000038
:100048000C9400000C9400000C9400001027E803A6
:1000580064000A0001000010000110000100204D9A
:100068006963726F70726F636573736F72200020BB
:1000780046696E616C2050726F6A65637420002057
:100088002020596173616D616E204D2E2020202043
:10009800002020204D2E4E617669642053682E2062
:1000A80020005468726573686F6C64203A200054AD
:1000B800656D7065726174757265203A20002564FB
:1000C800000A000001002D4E414E00494E46000036
:1000D80080C01100600266001000710277001200F3
:1000E800810287001100930299000D00A402AA0062
:1000F8000F00B102B7000100C002CC000200C40228
:10010800D8000000F894EE27ECBBF1E0FBBFEBBF92
:10011800E5BF8DE0A2E0BB27ED938A95E9F780E083
:1001280098E0A0E6ED930197E9F7EAEDF0E0859114
:100138009591009761F0A591B59105901590BF0133
:10014800F00105900D920197E1F7FB01F0CFEFE583
:10015800EDBFE8E0EEBFC0E6D2E00C94C100AA9380
:10016800E881E7B98BE18A95F1F7369A349BFECF9F
:10017800349AE4B1F5B10C9421026E97E0E0EABB41
:10018800EBBBE7BBE8BBE4BBE5BBE0E8E1BBE0E019
:10019800E2BBE3BFE2BFECBFEFBDEEBDEDBDECBD22
:1001A800E7BDE6BDEBBDEABDE9BDE8BDE2BDE5BD25
:1001B800E4BDE3BDE9BFE5BFE4BFEBB9E8E0EAB9F8
:1001C800E6E8E0BDE0E0E0BDE3E3E9B9E0E8E8B98E
:1001D800E0E0E7B9E3EAE6B9E0E0E0BFEDB9E6BFA1
:1001E800A0E10E94EE01A0E6B2E00E94A203A1E70E
:1001F800B2E00E94A903E0E0EA93A0E00E94B00107
:10020800A1E8B2E00E94A203A3E9B2E00E94A90318
:100218000E94BD01E0E0EA93A0E00E94B001A0E0E6
:100228000E94AF039F01A1E00E94AF03AF01A4EABF
:10023800B2E00E94DE013A932A930E94BE030E9414
:10024800A203A1EBB2E00E94DE015A934A930E94F6
:10025800BE030E94DE012417350714F4979A01C0E3
:100268009798E6ECF0E0FA93EA93FA010E94F40416
:100278000E94010584E00E9464032696E9ECF0E000
:10028800FA93EA9380E00E9464032296A2E3B0E026
:100298000E94F803BDCFFFCFBA93AA93A991B99151
:1002A800E991F99130962AF4E095F09531966DE24E
:1002B8006D93E89480E197E20DD088EE93E00AD040
:1002C80084E6992707D08AE005D06E2F10D06627DC
:1002D8006C9308956627E817F90720F06395E81BE3
:1002E800F90BC9F7662311F416F008956894605D58
:1002F8006D930895AA93E881E07111F0AD9A01C059
:10030800AD98E881E07211F0AE9A01C0AE98E8812C
:10031800E07411F0AF9A01C0AF98E881E07811F06D
:10032800929A01C092988DE08A95F1F7AC9A8DE087
:100338008A95F1F7AC988DE08A95F1F70C94210233
:10034800AA93A881D7DFE881E295E883A881D2DF64
:1003580085E88A95F1F771C0AA93E881F0E0EC533B
:10036800FD4FE081A981AE0FEBDF598048802296CE
:100378000895A2E00E94C503ACE0E2DFA1E00E947C
:10038800C503E0E04E2E5E2E0895AA93A881AA30F8
:1003980011F0571448F0E0E0EA934394A42DDCDF11
:1003A800A881AA3009F449C05394AA9AA881C8DF41
:1003B800AA9843C0BA93AA931A93A981BA81ED91D6
:1003C800A983BA831E2FE03019F0A12FDEDFF5CF05
:1003D800188140C0AA93A59AA69AA79A8A9AA49A1D
:1003E800A29AA39AAC98AA98AB987880E881E0582A
:1003F800E093C602E881E054E093C702A4E1B0E0CC
:100408000E94F8030E94CB030E94CB030E94CB03F7
:10041800A0E270DF88EC90E00197F1F7A8E290DFA6
:10042800A4E08EDFA5E88CDFA6E08ADFA2DF05C0A6
:10043800AA935D9BFECFE881ECB921960895BA9303
:10044800AA93AA81F5DFA881B981ED91FD91319632
:10045800FE93EE9323960895BA93AA9326970E9443
:10046800060510E0AC85BD85E0E0F0E0ED93FC9377
:10047800EA89FB893196EA8BFB8B3197E4912E2F21
:10048800E03009F415C1E12FE03039F4253211F4D8
:1004980011E002C00E94D3030AC1E130A9F4253259
:1004A80019F40E94D30302C112E040E000E02D32AB
:1004B80011F401E0FCC02B3211F44BE2F8C02032F9
:1004C80011F440E2F4C002C0E23039F450E013E025
:1004D800203311F40068EBC003C0E33009F0E7C033
:1004E800203310F02A3308F007C0AAE05A9F502D95
:1004F800E22FE0535E0FDBC0E22FE33649F40E949F
:10050800DA03E889F989A481AA930E94E003CEC09E
:10051800E33741F40E94DA030E94E6030E9489034C
:100528001E2F0AC0E03761F40E94DA030E94E60336
:100538000E9495031E2F086002600F7730E034C0D8
:10054800E43611F0E93611F4046002C0E53731F4FD
:10055800E4E5F0E0EE83FF8315E00CC0E83511F424
:10056800086003C0E83709F0A1C0EEE5F0E0EE83CB
:10057800FF8314E002FF14C00E94DA030E94F00314
:10058800AB85AA233AF4EA85FB850E94E804EA874A
:10059800FB874DE2403011F01F5F01C00B7F04C0A4
:1005A8000E94DA030E94F00300FD11C0151778F4C9
:1005B80007FF08C002FF04C00B7F242F115001C0A1
:1005C80020E301C020E20E94D3035150EFCF312F26
:1005D80001FF17C03030A1F003FF06C0EE81FF8194
:1005E8002591EE83FF8305C0AE81BF812D91AE8337
:1005F800BF830E94D303503009F051503150EACFE5
:100608004BC020E3EE81FF810E94FD04E887F98753
:10061800EE81FF813296EE83FF83E885F985AA850E
:10062800BB85AE17BF0750F02F5FA885B985EA854F
:10063800FB85EA1BFB0BEA87FB87EFCF2A3328F001
:1006480003FF02C0295F01C0295D04FD1AC02133E0
:1006580020F4A885B985119709F409C0531710F03B
:1006680000FF01C013C020E207FF0BC020E30061B8
:1006780002FF07C00B7F4A930E94E003503009F045
:1006880051500E94D303503009F051503150A88581
:10069800B985129708F0B5CF00FF08C0503031F087
:1006A8005150E0E2EA930E94E003F8CF10E0E0CE78
:1006B800AC85BD850E94F9040E940D0564960895D5
:1006C800FF92F82E26971A930A93DE0114960E9439
:1006D800E4048D01E0E0EC83ED83EE83EF83DE013B
:1006E80018960E94E4040E94F904FA93EA931A9374
:1006F8000A93E3E2F2E0FA93EA93DE011896ACDE9D
:10070800198108812896FF900895BA93AA93A99110
:10071800B991EE27FF276D91662311F03196FBCF33
:100728000895BA93AA93AA27BB27E991F99105904E
:10073800002011F01196FBCFFD0108950E94DE0103
:10074800E0E0EA93A1E00C94B0010E94DE01ACED78
:10075800B5E00C94F8030E94B300662777270E943F
:100768006804A0E0B0E08AEF9EE30E9496040E942D
:1007780031040895DE0156960E945001DE01549618
:1007880008950E94A401A3E0B0E00C94F803A0E34C
:100798000E947E0188EC90E00197F1F708952A9372
:1007A800AD85BE85EF85F88909950895E889F989A9
:1007B8003497E88BF98B0895AD85BE85EF85F88968
:1007C80009950895A889B98914960E94F904EE83B9
:1007D800FF83AE81BF810895A889B98914960E94C4
:1007E800F904EA87FB870895109639F080ED97E0C1
:1007F8000197F1F7A8951197C9F70895552342F481
:10080800503811F4E0FF04C03196691F791F6BF06E
:1008180050E8572711F45F9373C05F3F31F0660FBC
:10082800000C57956795752F08955F9300200AF07F
:1008380073C06CC050E8192E1522880F991F952790
:10084800550F879550E8072E0522660F771F7527E5
:10085800550F67950895689401C0E8945F93F2DF97
:10086800703818F07F3F08F44BC056E1571BAAF4C4
:10087800519558300EF4593030F0EFEFFFEF6FEF2D
:100888007FE777F91AC077275523B9F0EE0FFF1FD6
:10089800661F771F5A95D1F710C07727583028F070
:1008A800EF2FF62F672F5850F9CF552331F0769553
:1008B8006795F795E7955A95D1F700200AF488D0FF
:1008C8005F910895689401C0E89430976040704043
:1008D800B1F0002426F0772312F4009479D0172E73
:1008E8007EE1112032F07A95EE0FFF1F661F111C72
:1008F800F9CFEF2FF62F612D5F938ADF5F9108956F
:10090800EE27FF27662777275F910895EFEFFFEF20
:100918006FE77FEF5F910895EFEFFFEF6FE77FE7F6
:100928005F9108955F9386DF703851F3903841F3F3
:1009380001240894791F23F41CF300203AF3ECCF28
:100948000F921F932F933F934F9311272227992795
:10095800689FA0018F9F302D410D591F6B9F300D4F
:10096800411D591F8E9F27D0BF9F25D06A9F23D036
:10097800BE9F1DD0AF9F1BD0AE9F110D291F391FE1
:10098800491F591FE32FF42F652F522F4F913F9185
:100998002F911F910F9066232AF0550FEE1FFF1F0E
:1009A800661F02C073954BF229DF5F910895100D01
:1009B800211D391F02C0200D311D491F591F0895DF
:1009C8000024AF0DB01D0895F195E195F04008950C
:1009D800F09560957095E195FF4F6F4F7F4F0895A3
:1009E8006F2F660F660B762F0895ED91FC91119786
:1009F80008950590F491E02D08957A936A93FA93F7
:100A0800EA9308955A934A933A932A931A930A9326
:100A180008955D814C813B812A811981088108955F
:00000001FF
