:080000000C942F000C945C002D
:100008000C9400000C9400000C9400000C94000068
:100018000C9400000C9400000C9400000C94000058
:100028000C9400000C9400000C9400000C94000048
:100038000C9400000C9400000C9400000C94000038
:100048000C9400000C9400000C94000000000200C6
:10005800040054000000F894EE27ECBBF1E0FBBF6D
:10006800EBBFE5BF8DE0A2E0BB27ED938A95E9F7EA
:1000780080E094E0A0E6ED930197E9F7E6E5F0E08B
:1000880085919591009761F0A591B591059015908E
:10009800BF01F00105900D920197E1F7FB01F0CF48
:1000A800EFE5EDBFE4E0EEBFC0E6D1E00C948C00D4
:1000B8000A921A92FA926A937A938A939A93AA93D3
:1000C800BA93EA93FA93EFB7EA93E1E0F0E0E41524
:1000D800F50541F4C098AAE0B0E00E94CA004424A3
:1000E800552408C0C09AAAE0B0E00E94CA00E1E026
:1000F800F0E02F01E991EFBFF991E991B991A99148
:100108009991899179916991F99019900990189527
:100118009498C098E0E0EABBEBBBE1E0E7BBE0E025
:10012800E8BBEFEFE4BBE0E0E5BBE1BBE2BBE3BF6C
:10013800E2BFECBFEFBDEEBDEDBDECBDE7BDE6BD7A
:10014800EBBDEABDE9BDE8BDE2BDE5BDE4BDE3BD8B
:10015800E9BFEBB7E064EBBFE2E0E5BFE0E0E4BF96
:10016800E0E4EABFE0E0EAB9E0E8E8B9E0E0E0BFEF
:10017800E6B9EDB9E6BF7894A898A998AA98AB987B
:10018800AC98AD98AE98AF98F7CFFFCF109639F0EE
:1001980080ED97E00197F1F7A8951197C9F70895B1
:00000001FF
