:0A0000000C9435000C9400000C94E1
:10000A0000000C9400000C9400000C9400000C9466
:10001A0000000C9400000C9400000C9400000C9456
:10002A0000000C9400000C9400000C9400000C9446
:10003A0000000C9400000C9400000C9400000C9436
:10004A0000000C9400000C94000080A0C0E0426FF5
:10005A006E206A6F75720000090060015800000086
:10006A00F894EE27ECBBF1E0FBBFEBBFE5BF8DE0F8
:10007A00A2E0BB27ED938A95E9F780E094E0A0E639
:10008A00ED930197E9F7E2E6F0E085919591009703
:10009A0061F0A591B59105901590BF01F001059009
:1000AA000D920197E1F7FB01F0CFEFE5EDBFE4E038
:1000BA00EEBFC0E6D1E00C946200E0E0EABBEBBB25
:1000CA00E7BBE8BBE4BBE5BBE1BBE2BBE3BFE2BF26
:1000DA00ECBFEFBDEEBDEDBDECBDE7BDE6BDEBBDD2
:1000EA00EABDE9BDE8BDE2BDE5BDE4BDE3BDE9BFEA
:1000FA00E5BFE4BFEAB9E0E8E8B9E0E0E0BFE6B9A5
:10010A00EDB9E6BFA0E161D0A0E6B1E04DD0FCCFE9
:10011A00FFCFAA93EBB3EF70AE2FE881E07FEA2B13
:10012A00EBBB85E08A95F1F7DA9A8DE08A95F1F7CB
:10013A00DA988DE08A95F1F76BC0AA93A881E9DF76
:10014A00E881E295E883A881E4DF85E88A95F1F7FA
:10015A005FC0AA93E881F0E0EC5AFF4FE491A981CD
:10016A00AE0FEBDF5980488022960895A2E052D064
:10017A00ACE0E3DFA1E04ED0E0E04E2E5E2E089523
:10018A00AA93A881AA3011F0571440F0E0E0EA934C
:10019A004394A42DDEDFA881AA30D1F15394D89AD2
:1001AA00A881CBDFD89834C0BA93AA931A93A981AD
:1001BA00BA81ED91A983BA831E2FE03019F0A12FDD
:1001CA00DFDFF5CF188123960895AA93EAB3E06F8B
:1001DA00EABBD29AD09AD19ADA98D898D9987880E4
:1001EA00A4E1B0E00E941B011AD019D018D0A0E2F5
:1001FA0090DF88EC90E00197F1F7A4E29EDFA9E096
:10020A009CDFA0E29ADFACE098DFA6E096DFAEDFE3
:10021A002196089592DFA3E0B0E00C941B01A0E3BD
:10022A0078DF88EC90E00197F1F70895109639F09D
:10023A0080ED97E00197F1F7A8951197C9F708950E
:00000001FF
