:020000000C945E
:1000020041000C9400000C9400000C9400000C942D
:1000120000000C9400000C9400000C9400000C945E
:1000220000000C9400000C9400000C9400000C944E
:1000320000000C9400000C9400000C9400000C943E
:1000420000000C9400000C9400000C9400000C942E
:1000520000001027E80364000A00010000100001FC
:100062001000010001002D4E414E00494E46000095
:1000720080C001006002660002006402720000009B
:10008200F894EE27ECBBF1E0FBBFEBBFE5BF8DE0E0
:10009200A2E0BB27ED938A95E9F780E098E0A0E61D
:1000A200ED930197E9F7E4E7F0E0859195910097E8
:1000B20061F0A591B59105901590BF01F0010590F1
:1000C2000D920197E1F7FB01F0CFEFE5EDBFE8E01C
:1000D200EEBFC0E6D2E00C947C00AA93E881E7B9B7
:1000E2008BE18A95F1F7369A349BFECF349AE4B1CC
:1000F200F5B10C9497016B97E0E0EABBEBBBE7BB71
:10010200E8BBE4BBE5BBE0E8E1BBE0E0E2BBE3BFA8
:10011200E2BFECBFEFBDEEBDEDBDECBDE7BDE6BDA0
:10012200EBBDEABDE9BDE8BDE2BDE5BDE4BDE3BDB1
:10013200E9BFE5BFE4BFEBB9E8E0EAB9E6E8E0BD54
:10014200E0E0E0BDE3E3E9B9E0E8E8B9E0E0E7B91F
:10015200E3EAE6B9E0E0E0BFEDB9E6BFA0E10E9464
:100162006A010E943801E0E0EA93A0E00E942B01BC
:10017200979AA0E0B2DFFA93EA93DE0156960E94C4
:10018200CC00DE0154960E945901AEE1B0E00E941B
:10019200A701E7CFFFCFBA93AA93A991B991E991A9
:1001A200F99130962AF4E095F09531966DE26D93CF
:1001B200E89480E197E20DD088EE93E00AD084E6DD
:1001C200992707D08AE005D06E2F10D066276C934E
:1001D20008956627E817F90720F06395E81BF90BE5
:1001E200C9F7662311F416F008956894605D6D9363
:1001F2000895AA93E881E07111F0AD9A01C0AD981B
:10020200E881E07211F0AE9A01C0AE98E881E07424
:1002120011F0AF9A01C0AF98E881E07811F0929A9C
:1002220001C092988DE08A95F1F7AC9A8DE08A959B
:10023200F1F7AC988DE08A95F1F778C0AA93A8817E
:10024200D8DFE881E295E883A881D3DF85E88A9543
:10025200F1F76CC0AA93E881F0E0EC59FD4FE08120
:10026200A981AE0FEBDF5980488022960895A2E063
:100272000E949901ACE0E2DFA1E00E949901E0E076
:100282004E2E5E2E0895AA93A881AA3011F057141B
:1002920048F0E0E0EA934394A42DDCDFA881AA3081
:1002A20009F444C05394AA9AA881C8DFAA983EC010
:1002B200BA93AA931A93A981BA81ED91A983BA83B9
:1002C2001E2FE03019F0A12FDEDFF5CF1881239623
:1002D2000895AA93A59AA69AA79A8A9AA49AA29AE4
:1002E200A39AAC98AA98AB987880E881E058E093FA
:1002F2006602E881E054E0936702A4E1B0E00E9464
:10030200A7010E949F010E949F010E949F01A0E2FB
:1003120070DF88EC90E00197F1F7A8E28FDFA4E0AC
:100322008DDFA5E88BDFA6E089DFA1DF21960895A6
:100332000E941F01A3E0B0E00C94A701A0E30E9479
:10034200FA0088EC90E00197F1F70895109639F0E1
:1003520080ED97E00197F1F7A8951197C9F70895F5
:00000001FF
