:020000000C945E
:100002003D000C9400000C9400000C9400000C9431
:1000120000000C9400000C9400000C9400000C945E
:1000220000000C9400000C9400000C9400000C944E
:1000320000000C9400000C9400000C9400000C943E
:1000420000000C9400000C9400000C9400000C942E
:10005200000080A0C0E01027E80364000A0001004D
:10006200001000011000010068656C6C6C6F6C0080
:10007200080060026A000000F894EE27ECBBF1E091
:10008200FBBFEBBFE5BF8DE0A2E0BB27ED938A95F6
:10009200E9F780E098E0A0E6ED930197E9F7E2E75F
:1000A200F0E085919591009761F0A591B591059049
:1000B2001590BF01F00105900D920197E1F7FB0148
:1000C200F0CFEFE5EDBFE8E0EEBFC0E6D2E00C9482
:1000D2006A00E0E0EABBEBBBE7BBE8BBE4BBE5BB25
:1000E200E1BBE2BBE3BFE2BFECBFEFBDEEBDEDBDE6
:1000F200ECBDE7BDE6BDEBBDEABDE9BDE8BDE2BDD5
:10010200E5BDE4BDE3BDE9BFE5BFE4BFEBB9E8E0AF
:10011200EAB9E6E8E0BDE0E0E0BDE3E3E9B9E0E842
:10012200E8B9E0E0E7B9E3EAE6B9E0E0E0BFEDB95B
:10013200E6BFA0E174D0A0E6B2E060D0FCCFFFCF72
:10014200AA93E881E07111F0AD9A01C0AD98E881FF
:10015200E07211F0AE9A01C0AE98E881E07411F03D
:10016200AF9A01C0AF98E881E07811F0929A01C08D
:10017200929885E08A95F1F7AC9A8DE08A95F1F72D
:10018200AC988DE08A95F1F771C0AA93A881D8DF67
:10019200E881E295E883A881D3DF85E88A95F1F7C3
:1001A20065C0AA93E881F0E0EC5AFF4FE491A9817F
:1001B200AE0FEBDF5980488022960895A2E00E949C
:1001C2003901ACE0E2DFA1E00E943901E0E04E2E0D
:1001D2005E2E0895AA93A881AA3011F0571440F018
:1001E200E0E0EA934394A42DDCDFA881AA30F1F188
:1001F2005394AA9AA881C9DFAA9838C0BA93AA933D
:100202001A93A981BA81ED91A983BA831E2FE03096
:1002120019F0A12FDFDFF5CF188123960895AA9355
:10022200A59AA69AA79A8A9AA49AA29AA39AAC98ED
:10023200AA98AB987880A4E1B0E00E9447010E949E
:100242003F010E943F010E943F01A0E279DF88EC5A
:1002520090E00197F1F7A4E298DFA9E096DFA0E22F
:1002620094DFACE092DFA6E090DFA8DF219608954C
:100272000E94C600A3E0B0E00C944701A0E30E94F4
:10028200A10088EC90E00197F1F70895109639F0FB
:1002920080ED97E00197F1F7A8951197C9F70895B6
:00000001FF
