:0A0000000C942A000C9400000C94EC
:10000A0000000C9400000C9400000C9400000C9466
:10001A0000000C9400000C9400000C9400000C9456
:10002A0000000C9400000C9400000C9400000C9446
:10003A0000000C9400000C9400000C9400000C9436
:10004A0000000C9400000C940000F894EE27ECBB1E
:10005A00F1E0FBBFEBBFE5BF8DE0A2E0BB27ED936C
:10006A008A95E9F780E094E0A0E6ED930197E9F735
:10007A00EFE5EDBFE4E0EEBFC0E6D1E00C94450049
:10008A0000E010E0E1E0EABBE0E0EBBBE7BBE8BB85
:10009A00E4BBE5BBE1BBE2BBE3BFE2BFECBFEFBD44
:1000AA00EEBDEDBDECBDE7BDE6BDEBBDEABDE9BD0C
:1000BA00E8BDE2BDE5BDE4BDE3BDE9BFE5BFE4BF20
:1000CA00EAB9E0E8E8B9E0E0E0BFE6B9EDB9E6BFD1
:1000DA00D89A00E010E00031E7E21E071CF40F5F37
:1000EA001F4FF9CFEBB3E070EBBB00E010E000313B
:1000FA00E7E21E071CF40F5F1F4FF9CFE9CFFFCFCE
:00000001FF
